:030000000209F8FA
:03000B0002123BA3
:10003300454331323034422E61736D2028763329A3
:100043002052656C6F6A20726F74616E746520460E
:10005300656368613A2031362F342F3230313620D0
:1000630028432E294A5F52504D202020204A5D52BA
:10007300504D205662202020204552524F5220439B
:10008300484950202020204E4F2056414C49444F90
:10009300202020204C554E4553202020204D4152F6
:1000A300544553202020204D494552434F4C45533E
:1000B300202020204A5545564553202020205649CC
:1000C30045524E45532020202053414241444F2066
:1000D300202020444F4D494E474F20202020777C3D
:1000E300585E79716F76301E763815545C7367509D
:1000F3006D783E1C15766E5B550008403F065B4FDE
:10010300666D7D077F67777C395E79710040630197
:1001130002040810204080050403020100010203C9
:1001230004E54CB4010790009375190922B4020742
:1001330090009C75190A22B403079000A675190D47
:1001430022B404079000B375190A22B4050790007E
:10015300BD75190B22B406079000C875190A2290C1
:1001630000D275190B2220113490006C75190C0202
:10017300019520112890008675190D020195201113
:100183001C90007875190E020195201110853A4CC8
:10019300312485834E85824FD211751808854E838D
:1001A300854F82E493F56B740193F56C740293F5B8
:1001B3006D740393F56E1201D8E5187017854E839D
:1001C300854F82A385834E85824F751808D5190400
:1001D300C211D21222E56B1201FEC2B4121578E5E8
:1001E3006C1201FEC2B5121578E56D1201FEC2B69E
:1001F300121578E56E1201FEC2B722C083C0827564
:10020300A0FF7580FFD2B4D2B5D2B6D2B7B4410045
:1002130040079441B4300040057400020225900069
:10022300E19364FFF580D082D083222011327519C7
:100233000E7868D211751808E53670027410F56BE4
:10024300E537F56C756D11E538F56EE539F56F75C4
:100253007011757102757200E53BF573E53CF57439
:10026300120296C2B408121578120296C2B5081289
:100273001578120296C2B608121578120296C2B702
:10028300181818E518700B75180808D51904C21149
:10029300D21222E8B46B004009B475005004E602A0
:1002A30002A7741012119C227509FF750AFF79FFCA
:1002B3009000337A00E4937808F61203CBEA04FA49
:1002C300D9F4E50964F8650A64ADD2147002C21466
:1002D30022D20D751B0175F00AE534A4F5F0E5355E
:1002E30025F0F54775F00AE532A4F5F0E53325F07E
:1002F300F54885314975F00AE536A4F5F0E537256B
:10030300F0F54A75F00AE538A4F5F0E53925F0F57E
:100313004B853A4C75F00AE53BA4F5F0E53C25F036
:10032300F54D2212033812034A2275F06484E5F076
:1003330075F00A8422C0F075F06484E5F075F00A64
:1003430084C445F0D0F022C0E0C4540F2430F5F04B
:10035300D0E0540F243022C0E0C4540F75F00AA437
:10036300F5F0D0E0540F25F022740022740122042A
:10037300B40A0050F42204B4080050F02204B40D6F
:100383000050E92204B4200050E22204B4180050C3
:10039300D82204B4190050D42204B41904E550043B
:1003A3002250FAB5500280F540F32204B4330050D2
:1003B300B82204B43C0050B122B43C004002943C47
:1003C3002204B4640050A222E50AC509C50AE66501
:1003D3000AC50AE50A54F0C4650AC50AE50A54F8D1
:1003E300C3131313C50BE50A5407C313131313C520
:1003F3000CE50A540FC4650B6509C509E50A650CCC
:10040300C50A22E509C4540F12119CC2B412157314
:10041300E509540F12119CC2B5121573E50AC454B1
:100423000F12119CC2B6121573E50A540F12119CD8
:10043300C2B722748EC293D291120750740012076E
:1004430050C293C2911204BF2274FCC293D2911280
:10045300075074AA120750C293C2917520007550B9
:100463000A7551167552087553007554037555195D
:100473007556117557051205941205A61205B41287
:1004830005C21205D01205DE1205EC1205FA12069A
:1004930008754900754800754700754A01754B0199
:1004A300754D10754C0512064F12065D12066B1240
:1004B300067F12068D1206A912069B221206C2742B
:1004C300FDC293D291120750E4120763C293C29103
:1004D300D214B4AA02C2142274C1120527F52074DF
:1004E300C3120527541FF55074C5120527541FF571
:1004F3005174C7120527541FF55274C912052754A6
:100503003FF55374CB120527540FF55474CD1205E0
:1005130027F55574CF120527F55674D112052754C4
:100523000FF55722C293D291120750120763C29359
:10053300C29122D222E51BB40103020594B4020343
:10054300020594B403061205A60205B4B40403021B
:1005530005B4B40503020594B406030205C2B40747
:10056300030205D0B40803020594B409030205DEAF
:10057300B40A03020594B40B030205ECB40C0302A2
:1005830005FAB40D03020608B40E03020594C22251
:1005930022C224D22274C0C293D291120750E52002
:1005A3000206B674C2C293D291120750E5500206F6
:1005B300B674C4C293D291120750E5510206B674C1
:1005C300C6C293D291120750E5520206B674C8C24E
:1005D30093D291120750E5530206B674CAC293D25E
:1005E30091120750E5540206B674CCC293D291120D
:1005F3000750E5550206B674CEC293D29112075046
:10060300E5560206B674D0C293D291120750E5574D
:100613000206B6D222E51BB4010302064FB402035D
:1006230002065DB4030302066BB40407C205B1946A
:1006330002067FB40507C205B19402068DB4060312
:1006430002069BB407030206A9C222227480C29346
:10065300D291120750E5490206B47482C293D29133
:10066300120750E5480206B4D222C205B19474843D
:10067300C293D291120750E5470206B47486C2931F
:10068300D291120750E54A0206B47488C293D291FC
:10069300120750E54B0206B4748AC293D291120733
:1006A30050E54C0206B4748CC293D291120750E504
:1006B3004D7138120750C293C291D20FC2222274D5
:1006C30081B12730E708547F715AF531D14F227435
:1006D30081B127547F715AF5317483B127C0E0711A
:1006E3005AF546D0E0C0E0C4540FF532D0E0540FC1
:1006F300F5337485B127F53FC0E0715AF545D0E075
:10070300C0E0C4540FF534D0E0540FF5357487B10D
:1007130027F53DC0E0C4540FF536D0E0540FF5374C
:100723007489B127F53EC0E0C4540FF538D0E054C6
:100733000FF539748BB1275407F53A748DB127C07F
:10074300E0C4540FF53BD0E0540FF53C227908C2C6
:1007530093134005C29202075ED292D293D9F0223C
:1007630079087400C29300C3309201D313D293D992
:10077300F322C0E0C2907401120976D29074011280
:100783000976A290D0E022C0E0921FC290740112B9
:100793000976A21F92907428120976D290D0E02293
:1007A300C0E0C29074FA120976D290D0E022C0E081
:1007B300F1A3740812097675600030900B0560E5AB
:1007C30060B425F6D3D0E0227478120976C3D0E062
:1007D30022C0F075F008E4F17513C0E0741C12092F
:1007E30076D0E0D5F0F1D0F022C0E0C0F075F0088B
:1007F30013F18AD5F0FAD0F0D0E0221207B174FFDA
:100803004001E422C0001207FE706C74CC1207ECA6
:1008130074441207EC1207D4B4FFFA1207FE7057A0
:1008230074CC1207EC74BE1207EC78657464120979
:10083300761207D4F60874641209761207D4F60800
:1008430074641209761207D474641209761207D4F9
:1008530074641209761207D474641209761207D4E9
:1008630074641209761207D4F608746412097612B6
:1008730007D4F6D000E422D00074FF22C0E0C0F019
:10088300E557B405030208D55028B40405740202E1
:1008930008AFB4030574040208AFB402057406027A
:1008A30008AFB401027408B40028740A120969027B
:1008B30008D5B4060574020208D2B407057404020D
:1008C30008D2B4080574060208D2B40905740812E4
:1008D300095EE566600EE5650412097BF5657561E1
:1008E300110208EA756110E56575F0028412033898
:1008F300F5F054F0C4F562E5F0540FF56375F00AB2
:10090300E568C39567A48568F084F568E561B4116B
:1009130009E568240712097BF568E5681203385472
:100923000FF564D0F0D0E02211077011E56670076F
:10093300E565B4A0005006117F1209862275611186
:10094300756211756311756411755C11755D1175AF
:100953005E11755F11756900D20F22C33565F565A8
:10096300500375660022C3C5659565F5655003752B
:1009730066FF2200D5E0FC22C0F0F5F0E4C395F059
:10098300D0F02275F00AE562A42563F569E561B448
:100993001103756900E562B40003756210E561B483
:1009A300111CE562B4100685615C0209C4755C1113
:1009B300755D11755E01755F00C2210209CF856205
:1009C3005C85635D85645E755F12D221200203023C
:1009D30009F7E561B411030209F2E569B556004070
:1009E3000EE569B55504E564600A50030209F7D2C0
:1009F30016751715227581751211E7120436D20F79
:100A030030141312044C1204BF30140AD20F120113
:100A13008112157380F61204DB1202AB30140AD272
:100A23000F12017512157380F612016912157830D1
:100A330012F7C2121211543004063005031212ECDD
:100A4300120A78120AC61213641212F8300A0DC27F
:100A530015751C01751101120C4380E41210441228
:100A630010C212157880D9200C0412061622120522
:100A73003622D21B22201C4720B241D21C2019F25D
:100A8300D209300C3AD20A020AC2C209D20A301081
:100A930005C210020AC2300B04C20B516AE51B04E3
:100AA300300C09120AECB40F0E020AB2B40808742F
:100AB30001C20DC20AC20CF51B020AC22009CB22D5
:100AC300D21B22201C2220B31DD21C2019F2200885
:100AD30017D208300A03020B16E51C04B4040040C5
:100AE300027401F51C22C20822B4030B2000232048
:100AF30007207405020B15B40608200115740A02B9
:100B03000B15B40B0820020A740E020B15B40E0267
:100B1300740F22D20BE51B200C03020BBDB401059D
:100B2300B200020C15B40205B207020C15B4030F90
:100B3300E55012038EF550E55112039D020B4AB4A2
:100B4300040AE55112039CF551020C15B40505B2D4
:100B530001020C15B4060AE55212038EF552020C7B
:100B630015B4070AE5531203B5F553020C15B4087F
:100B730005B203020C15B4090AE554120372F554C5
:100B8300020C15B40A05B202020C15B40B0AE555A2
:100B93001203AEF555020C15B40C0AE5561203AE5A
:100BA300F556020C15B40D0AE557120372F55702F8
:100BB3000C15B40E02B204020C15B4010AE5491275
:100BC30003B5F549020C15B4020AE5481203B5F55D
:100BD30048020C15B4030AE54712038EF547020CCD
:100BE30015B4040AE54A120387F54A020C15B40545
:100BF3000AE54B120380F54B020C15B4060AE54CCB
:100C0300120379F54C020C15B40707E54D1203C422
:100C1300F54D221201247404931211C0C2B41215AB
:100C2300737405931211C0C2B5121573740693122F
:100C330011C0C2B61215737407931211C0C2B72242
:100C4300200D031202D4D20EC213E51B300C030293
:100C53000D92B4012F74531211C0C2B412157374E0
:100C6300451211C0C2B5121573E54912032DC0F028
:100C73007002741012119CC2B6121573D0E01211D7
:100C83009CC2B722B4022F744D1211C0C2B4121504
:100C93007374491211C0C2B5121573E54812032DBE
:100CA300C0F07002741012119CC2B6121573D0E01A
:100CB30012119CC2B722B4033274481211C0C2B4D9
:100CC300121573744F1211C0C2B5121573E5471292
:100CD300032DC0F07002741012119CC2B61215736A
:100CE300D0E012119CC2B712157322B4042F7444BE
:100CF3001211C0C2B412157374491211C0C2B512D5
:100D03001573E54A12032DC0F07002741012119C82
:100D1300C2B6121573D0E012119CC2B722B40532C9
:100D2300744D1211C0C2B412157374451211C0C2AE
:100D3300B5121573E54B12032DC0F0700274101237
:100D4300119CC2B6121573D0E012119CC2B72202D5
:100D5300103DB40605D213911622B407F274411262
:100D630011C0C2B4121573745B1211C0C2B512154F
:100D730073E54D12032DC0F07002741012119CC262
:100D8300B6121573D0E012119CC2B712157322B4B8
:100D9300012B74481211C0C2B4121573744F12118F
:100DA300C0C2B5121573744F1211C0C2B6121573B7
:100DB300744E20000274461211C0C2B722B4022B33
:100DC30074521211C0C2B412157374421211C0C20C
:100DD300B5121573744F1211C0C2B6121573744E47
:100DE30020070274461211C0C2B722B403327448FA
:100DF3001211C0C2B412157374491211C0C2B512D4
:100E03001573E55012032DC0F07002741012119C7B
:100E1300C2B6121573D0E012119CC2B71215732219
:100E2300B4042F74481211C0C2B41215737446125D
:100E330011C0C2B5121573E55112032DC0F0700233
:100E4300741012119CC2B6121573D0E012119CC219
:100E5300B722B4052B74411211C0C2B412157374B6
:100E63004C1211C0C2B5121573744F1211C0C2B621
:100E7300121573744E20010274461211C0C2B722B8
:100E8300B4062F74481211C0C2B412157374411200
:100E930011C0C2B5121573E55212032DC0F07002D2
:100EA300741012119CC2B6121573D0E012119CC2B9
:100EB300B722B4072F744D1211C0C2B41215737444
:100EC300411211C0C2B5121573E55312032DC0F0C0
:100ED3007002741012119CC2B6121573D0E0121175
:100EE3009CC2B722B4082B74461211C0C2B41215A7
:100EF3007374531211C0C2B5121573744F1211C01B
:100F0300C2B6121573744E20030274461211C0C286
:100F1300B722B4092674521211C0C2B412157374E5
:100F2300451211C0C2B5121573741012119CC2B6CA
:100F3300121573E55412119CC2B722B40A2B7441E3
:100F43001211C0C2B412157374541211C0C2B51277
:100F53001573744F1211C0C2B6121573744E20026A
:100F63000274461211C0C2B722B40B2F745412116B
:100F7300C0C2B412157374481211C0C2B5121573EE
:100F8300E55512032DC0F07002741012119CC2B605
:100F9300121573D0E012119CC2B722B40C2F7454F3
:100FA3001211C0C2B4121573744C1211C0C2B5121F
:100FB3001573E55612032DC0F07002741012119CC4
:100FC300C2B6121573D0E012119CC2B722B40D3C05
:100FD300741212119CC2B4121573740C12119CC2B8
:100FE300B5121573E557B40503020FF140087410E9
:100FF30012119C020FFE741112119CC2B6121573CA
:10100300E55790011A9312119CC2B722B40E2B74A8
:10101300431211C0C2B412157374481211C0C2B581
:10102300121573744F1211C0C2B6121573744E2089
:10103300040274461211C0C2B722C20DC20AC20C06
:1010430022D2B4D2B5D2B6D2B73017083023057442
:101053000012106FE51CB40105E53102106FD50CC9
:1010630009750C0612107612106FE54612108912DC
:10107300157322E545B40C057400021084400294F4
:101083000C75F005A4227530FEB40800400F75F00E
:101093000884F9E530D333D9FDF530E5F02016188F
:1010A300301803201D127580FF8530A09001129324
:1010B30064FFF5801215782275800075A00022E583
:1010C3001CB4010F751C01751101C212C20DC211AE
:1010D300021119B40203021143B403030210E580A1
:1010E300E322E511B4010B751101301223C212047E
:1010F300F511B4021030121BC212751103C2207510
:101103001205021152B403DFC2122020DA02117257
:1011130002018D02022EE5347002741012119CC27A
:10112300B4121578E53512119CC2B5121578E53263
:1011330012119CC2B6121578E53312119CC2B72264
:10114300302008C22075120A12115212117222C2E3
:10115300AF75A0FF7580FFD2B4D2B5D2B6D2B7D2E5
:1011630094D222C0D012092BD0D0C222D2AF22A255
:1011730021920EE55C12119CC2B4121578E55D1242
:10118300119CC2B5121578E55E12119CC2B61215F8
:1011930078E55F12119CC2B722C083C08275A0FF9D
:1011A3007580FFD2B4D2B5D2B6D2B79000FF9330D8
:1011B3000E02448064FFF580D082D08322C083C0B6
:1011C3008275A0FF7580FFD2B4D2B5D2B6D2B790E4
:1011D30000E1C3944193201302448064FFF580D05F
:1011E30082D08322758C4D758A0053877F75891150
:1011F3007530FF75A0FF7580FFD2B4D2B5D2B6D2D9
:10120300B7C293C291753100751F00751E02751D1B
:1012130001751C01751101751B01751A50751201B9
:10122300120940752100752200752300752400D230
:10123300B9D2A9D28CD2AF22C0E0C0D0C0F0C001D5
:10124300C28CC28D758C4D758A00C21CE51004F5E5
:1012530010B45008751000D223021264B40202C203
:1012630023301609C294D51704C216D2943011073D
:10127300E518600314F518200C0F200A0C20B2099E
:10128300D51A09D20FD20CD210751A50300F0F3065
:101293009405C2940212A1C20F201602D294D51D46
:1012A3003D2022031206D2751D0AB21DD51E05C2AA
:1012B3000E751E02200A27E531B51F030212E1F560
:1012C3001FE51CB40102D20E20220E30040B3005A0
:1012D30005E531B401031212ECD51202D220D28CEF
:1012E300D001D0F0D0D0D0E032C083C08212140439
:1012F300D082D08322E531B51603021329F51630C7
:10130300000612132A02130DC215300717E545B55F
:1013130050030213274008B551030213224005D29C
:1013230024021329C2242220151CE546B43B31E5CF
:1013330045120395B550030213474024B5510302E8
:101343001347501CD215E546700AD216751715C2FD
:1013530015021363E531B437004005D2167517053E
:1013630022300116200C13E531B51503021403F5E1
:101373001520184B30030E0213A6C217C218C21948
:10138300C21AC21B2220171BE552B5450AE553B505
:101393004605E53AB40704E53A5003120379B40667
:1013A3000050D7D217E552B54556E553B54651E53A
:1013B30031704DD218D219855413855314C21B3082
:1013C3001925E514B5461BE531B43B030213DF20B1
:1013D3001B0AD216751705D219021403C21AE51394
:1013E3006098C219021403E5317015201AD4E5136D
:1013F30014F513E51424051203BCF514D21AC21B09
:101403002212142E6024300521300611E53FB40268
:1014130000401704B4180302142D021428E53FB446
:101423000300400614F54712066B22E53EB4031C85
:1014330012149E9014AB93B53D08E53FB402080225
:101443001472402B02148950260214894038B410B8
:101453001C12149E90150F93B53D08E53FB4020886
:101463000214894021021472501C02147250172076
:10147300050BD205C206120594E402149DE430065E
:1014830019740102149D20050BD205D2061205948E
:10149300E402149DE420060274012275F00AE53B80
:1014A300A4F5F0E53C25F022262531302827262512
:1014B3003029282725313029272625312928272691
:1014C3003130292826253130282726253029282779
:1014D3002531302927262531292827263130292867
:1014E300262531302827262530292827253130295C
:1014F300272625312928272631302928262531304A
:101503002827262530292827253130292928272649
:101513003130292826253130282726253029282728
:101523002531302927262531292827263130292816
:10153300262531302827262530292827253130290B
:1015430027262531292827263130292826253130F9
:1015530028272625302928272531302927262531F4
:1015630029282726313029282625313028272625E2
:101573007F1CDFFE223024077F04DFFE0215877FF6
:1015830038DFFE227580FFD2B4D2B5D2B6D2B722ED
:00000001FF
