:03000000020A22CF
:03000B0002126777
:10003300454331323034422E61736D2028763429A2
:100043002052656C6F6A2046432D32303920466555
:100053006368613A20372F352F32303136202843F9
:100063002E294A5F52504D2020202046435E615F77
:1000730068204A5D52504D2056632020202045526F
:10008300524F522043484950202020204E4F2056A3
:10009300414C49444F202020204C554E45532020AD
:1000A30020204D4152544553202020204D49455294
:1000B300434F4C4553202020204A55455645532055
:1000C300202020564945524E45532020202053419D
:1000D3004241444F20202020444F4D494E474F205A
:1000E300202020777C585E79716F76301E76381524
:1000F300545C7367506D783E1C15766E5B55000833
:10010300403F065B4F666D7D077F67777C395E797D
:1001130071004063010204081020408005040302BB
:10012300010001020304E54CB4010790009875191E
:100133000922B402079000A175190A22B40307909B
:1001430000AB75190D22B404079000B875190A2283
:10015300B405079000C275190B22B406079000CDB1
:1001630075190A229000D775190B222011349000BB
:100173006A75191302019A20112890008B75190DC5
:1001830002019A20111C90007D75190E02019A201C
:100193001110853A4C312985834E85824FD21175D2
:1001A3001808854E83854F82E493F56B740193F5AC
:1001B3006C740293F56D740393F56E1201DDE5180B
:1001C3007017854E83854F82A385834E85824F7535
:1001D3001808D51904C211D21222E56B120203C208
:1001E300B41215A4E56C120203C2B51215A4E56D91
:1001F300120203C2B61215A4E56E120203C2B7229D
:10020300C083C08275A0FF7580FFD2B4D2B5D2B6C9
:10021300D2B7B4410040079441B4300040057400A4
:1002230002022A9000E69364FFF580D082D08322F5
:1002330020113275190E7868D211751808E53670D9
:10024300027410F56BE537F56C756D11E538F56ED5
:10025300E539F56F757011757102757200E53BF53F
:1002630073E53CF57412029BC2B4081215A4120282
:100273009BC2B5081215A412029BC2B6081215A49C
:1002830012029BC2B7181818E518700B75180808E6
:10029300D51904C211D21222E8B46B004009B47517
:1002A300005004E60202AC74101211C8227509FF53
:1002B300750AFF79FF9000337A00E4937808F61209
:1002C30003D0EA04FAD9F4E50964AB650A64E4D21D
:1002D300147002C21422D20D751B0175F00AE534A5
:1002E300A4F5F0E53525F0F54775F00AE532A4F5F8
:1002F300F0E53325F0F54885314975F00AE536A474
:10030300F5F0E53725F0F54A75F00AE538A4F5F080
:10031300E53925F0F54B853A4C75F00AE53BA4F534
:10032300F0E53C25F0F54D2212033D12034F2275F3
:10033300F06484E5F075F00A8422C0F075F06484FB
:10034300E5F075F00A84C445F0D0F022C0E0C4544F
:100353000F2430F5F0D0E0540F243022C0E0C45411
:100363000F75F00AA4F5F0D0E0540F25F0227400C5
:100373002274012204B40A0050F42204B408005089
:10038300F02204B40D0050E92204B4200050E2220C
:1003930004B4180050D82204B4190050D42204B471
:1003A3001904E550042250FAB5500280F540F322B7
:1003B30004B4330050B82204B43C0050B122B43C1E
:1003C300004002943C2204B4640050A222E50AC512
:1003D30009C50AE6650AC50AE50A54F0C4650AC5F3
:1003E3000AE50A54F8C3131313C50BE50A5407C3EC
:1003F30013131313C50CE50A540FC4650B6509C524
:1004030009E50A650CC50A22E509C4540F1211C88F
:10041300C2B412159FE509540F1211C8C2B51215C3
:100423009FE50AC4540F1211C8C2B612159FE50AFC
:10043300540F1211C8C2B722748EC293D2911207FD
:10044300557400120755C293C2911204C42274FC5E
:10045300C293D29112075574AA120755C293C2913F
:1004630075200075500A755116755208755300753D
:1004730054037555197556117557051205991205CB
:10048300AB1205B91205C71205D51205E31205F122
:100493001205FF12060D7549007548007547007572
:1004A3004A01754B01754D10754C05120654120621
:1004B300621206701206841206921206AE1206A08B
:1004C300221206C774FDC293D291120755E4120794
:1004D30068C293C291D214B4AA02C2142274C11284
:1004E300052CF52074C312052C541FF55074C51246
:1004F300052C541FF55174C712052C541FF5527463
:10050300C912052C543FF55374CB12052C540FF527
:100513005474CD12052CF55574CF12052CF5567471
:10052300D112052C540FF55722C293D291120755BD
:10053300120768C293C29122D222E51BB4010302BF
:100543000599B40203020599B403061205AB02052B
:10055300B9B404030205B9B40503020599B406034B
:100563000205C7B407030205D5B40803020599B40D
:1005730009030205E3B40A03020599B40B03020558
:10058300F1B40C030205FFB40D0302060DB40E0310
:10059300020599C22222C224D22274C0C293D291EC
:1005A300120755E5200206BB74C2C293D29112070B
:1005B30055E5500206BB74C4C293D291120755E5A8
:1005C300510206BB74C6C293D291120755E552027B
:1005D30006BB74C8C293D291120755E5530206BBFA
:1005E30074CAC293D291120755E5540206BB74CC68
:1005F300C293D291120755E5550206BB74CEC2933E
:10060300D291120755E5560206BB74D0C293D2911C
:10061300120755E5570206BBD222E51BB4010302BC
:100623000654B40203020662B40303020670B40460
:1006330007C205B199020684B40507C205B1990240
:100643000692B406030206A0B407030206AEC22252
:10065300227480C293D291120755E5490206B974F8
:1006630082C293D291120755E5480206B9D222C23B
:1006730005B1997484C293D291120755E5470206D6
:10068300B97486C293D291120755E54A0206B9742A
:1006930088C293D291120755E54B0206B9748AC2F8
:1006A30093D291120755E54C0206B9748CC293D2CA
:1006B30091120755E54D713D120755C293C291D270
:1006C3000FC222227481B12C30E708547F715FF589
:1006D30031D154227481B12C547F715FF53174830D
:1006E300B12CC0E0715FF546D0E0C0E0C4540FF513
:1006F30032D0E0540FF5337485B12CF53FC0E0716F
:100703005FF545D0E0C0E0C4540FF534D0E0540F9A
:10071300F5357487B12CF53DC0E0C4540FF536D0E0
:10072300E0540FF5377489B12CF53EC0E0C4540F83
:10073300F538D0E0540FF539748BB12C5407F53AE2
:10074300748DB12CC0E0C4540FF53BD0E0540FF5C9
:100753003C227908C293134005C292020763D292E6
:10076300D293D9F02279087400C29300C330920166
:10077300D313D293D9F322C0E0C29074011209AC0F
:10078300D29074011209ACA290D0E022C0E0921F73
:10079300C29074011209ACA21F929074281209AC82
:1007A300D290D0E022C0E0C29074FA1209ACD29089
:1007B300D0E022C0E0F1A874081209AC75600030E3
:1007C300900B0560E560B425F6D3D0E0227478126F
:1007D30009ACC3D0E022C0F075F008E4F17A13C08D
:1007E300E0741C1209ACD0E0D5F0F1D0F022C0E0E7
:1007F300C0F075F00813F18FD5F0FAD0F0D0E022F5
:100803001207B674FF4001E422C00011037019748B
:10081300CC1207F1744E1207F174001207F1740041
:100823001207F1747F1207F1D00022C00011037088
:100833005174CC1207F174441207F11207D9B4FFB3
:10084300FA1103703D74CC1207F174BE1207F178EC
:100853006574641209AC1207D9F60874641209AC02
:100863001207D9F60874641209AC1207D97464121A
:1008730009AC1207D974641209AC1207D9F6D00077
:10088300E422D00074FF22C0E0C0F0E565540FF508
:1008930067E56630E703120978E56554F0C4F5654A
:1008A300E5665407C44565F565E557B405030208D5
:1008B300FE5028B4040574010208D8B40305740279
:1008C3000208D8B4020574030208D8B40102740400
:1008D300B4002874051209960208FEB406057401D3
:1008E3000208FBB4070574020208FBB4080574038D
:1008F3000208FBB409057404120981E56654F86023
:100903000CE565647FF56575611102091375611066
:10091300E56512033DF5F054F0C4F562E5F0540FBC
:10092300F563E567540F120933F564D0F0D0E02284
:10093300C083C08290094093D082D08322000101FA
:1009430002020303040506060707080809112E70AF
:1009530006118A1209B0227561117562117563114E
:10096300756411755C11755D11755E11755F117597
:100973006800D20F22E567640F540FF56722C33571
:1009830065F56530E70C547FF565E5665407F56654
:10099300317822C3C5659565547FF565500AE566D0
:1009A300540744F8F566317822D5E0FD2275F00A44
:1009B300E562A42563F568E561B41103756800E594
:1009C30062B40003756210E561B4111CE562B410F2
:1009D3000685615C0209EE755C11755D11755E013A
:1009E300755F00C2210209F985625C85635D8564D8
:1009F3005E755F12D221200203020A21E561B41160
:100A030003020A1CE568B55600400EE568B55504B7
:100A1300E564600A5003020A21D216751715227580
:100A2300817512121312043BD20F301413120451A6
:100A33001204C430140AD20F12018612159F80F6D5
:100A43001204E01202B030140AD20F12017A121506
:100A53009F80F612016E1215A43012F7C212110C08
:100A6300121180300406300503121318120AA4125F
:100A73000AF2121390121324300A0DC215751C01C9
:100A8300751101120C6F80E41210701210EE121522
:100A9300A480D9200C0412061B2212053B22D21B70
:100AA30022201C4720B241D21C2019F2D209300C5B
:100AB3003AD20A020AEEC209D20A301005C2100263
:100AC3000AEE300B04C20B5196E51B04300C0912DD
:100AD3000B18B40F0E020ADEB408087401C20DC26B
:100AE3000AC20CF51B020AEE2009CB22D21B2220DC
:100AF3001C2220B31DD21C2019F2200817D2083063
:100B03000A03020B42E51C04B4040040027401F51D
:100B13001C22C20822B4030B2000232007207405E3
:100B2300020B41B40608200115740A020B41B40BF1
:100B33000820020A740E020B41B40E02740F22D273
:100B43000BE51B200C03020BE9B40105B200020CF8
:100B530041B40205B207020C41B4030FE55012037E
:100B630093F550E5511203A2020B76B4040AE55142
:100B73001203A1F551020C41B40505B201020C4167
:100B8300B4060AE552120393F552020C41B4070A64
:100B9300E5531203BAF553020C41B40805B203023C
:100BA3000C41B4090AE554120377F554020C41B41D
:100BB3000A05B202020C41B40B0AE5551203B3F560
:100BC30055020C41B40C0AE5561203B3F556020C58
:100BD30041B40D0AE557120377F557020C41B40EE1
:100BE30002B204020C41B4010AE5491203BAF54901
:100BF300020C41B4020AE5481203BAF548020C415B
:100C0300B4030AE547120393F547020C41B4040AFF
:100C1300E54A12038CF54A020C41B4050AE54B126E
:100C23000385F54B020C41B4060AE54C12037EF52D
:100C33004C020C41B40707E54D1203C9F54D2212CE
:100C430001297404931211ECC2B412159F74059315
:100C53001211ECC2B512159F7406931211ECC2B6B1
:100C630012159F7407931211ECC2B722200D0312C1
:100C730002D9D20EC213E51B300C03020DBEB40120
:100C83002F74531211ECC2B412159F74451211EC58
:100C9300C2B512159FE549120332C0F070027410F9
:100CA3001211C8C2B612159FD0E01211C8C2B722E2
:100CB300B4022F744D1211ECC2B412159F74491271
:100CC30011ECC2B512159FE548120332C0F0700251
:100CD30074101211C8C2B612159FD0E01211C8C207
:100CE300B722B4033274481211ECC2B412159F74C4
:100CF3004F1211ECC2B512159FE547120332C0F033
:100D0300700274101211C8C2B612159FD0E01211EE
:100D1300C8C2B712159F22B4042F74441211ECC237
:100D2300B412159F74491211ECC2B512159FE54A0E
:100D3300120332C0F0700274101211C8C2B6121539
:100D43009FD0E01211C8C2B722B40532744D1211FC
:100D5300ECC2B412159F74451211ECC2B512159F63
:100D6300E54B120332C0F0700274101211C8C2B600
:100D730012159FD0E01211C8C2B722021069B4063F
:100D830005D213914222B407F274411211ECC2B49A
:100D930012159F745B1211ECC2B512159FE54D122B
:100DA3000332C0F0700274101211C8C2B612159F3C
:100DB300D0E01211C8C2B712159F22B4012B744898
:100DC3001211ECC2B412159F744F1211ECC2B5127A
:100DD300159F744F1211ECC2B612159F744E20006A
:100DE3000274461211ECC2B722B4022B74521211D0
:100DF300ECC2B412159F74421211ECC2B512159FC6
:100E0300744F1211ECC2B612159F744E2007027470
:100E1300461211ECC2B722B4033274481211ECC269
:100E2300B412159F74491211ECC2B512159FE55007
:100E3300120332C0F0700274101211C8C2B6121538
:100E43009FD0E01211C8C2B712159F22B4042F74A9
:100E5300481211ECC2B412159F74461211ECC2B5BC
:100E630012159FE551120332C0F070027410121173
:100E7300C8C2B612159FD0E01211C8C2B722B4057A
:100E83002B74411211ECC2B412159F744C1211EC65
:100E9300C2B512159F744F1211ECC2B612159F748E
:100EA3004E20010274461211ECC2B722B4062F740D
:100EB300481211ECC2B412159F74411211ECC2B561
:100EC30012159FE552120332C0F070027410121112
:100ED300C8C2B612159FD0E01211C8C2B722B40718
:100EE3002F744D1211ECC2B412159F74411211EC00
:100EF300C2B512159FE553120332C0F0700274108D
:100F03001211C8C2B612159FD0E01211C8C2B7227F
:100F1300B4082B74461211ECC2B412159F74531209
:100F230011ECC2B512159F744F1211ECC2B6121513
:100F33009F744E20030274461211ECC2B722B40907
:100F43002674521211ECC2B412159F74451211EC9F
:100F5300C2B512159F74101211C8C2B612159FE5BF
:100F6300541211C8C2B722B40A2B74411211ECC235
:100F7300B412159F74541211ECC2B512159F744F1D
:100F83001211ECC2B612159F744E2002027446125F
:100F930011ECC2B722B40B2F74541211ECC2B41269
:100FA300159F74481211ECC2B512159FE555120333
:100FB30032C0F0700274101211C8C2B612159FD05D
:100FC300E01211C8C2B722B40C2F74541211ECC230
:100FD300B412159F744C1211ECC2B512159FE5564D
:100FE300120332C0F0700274101211C8C2B6121587
:100FF3009FD0E01211C8C2B722B40D3C7412121173
:10100300C8C2B412159F740C1211C8C2B512159F31
:10101300E557B4050302101D400874101211C802ED
:10102300102A74111211C8C2B612159FE557900108
:101033001F931211C8C2B722B40E2B74431211ECC2
:10104300C2B412159F74481211ECC2B512159F74E5
:101053004F1211ECC2B612159F744E20040274464F
:101063001211ECC2B722C20DC20AC20C22D2B4D2F0
:10107300B5D2B6D2B7301708302305740012109BCF
:10108300E51CB40105E53102109BD50C09750C066E
:101093001210A212109BE5461210B512159F22E5FD
:1010A30045B40C0574000210B04002940C75F005B1
:1010B300A4227530FEB40800400F75F00884F9E5EA
:1010C30030D333D9FDF530E5F0201618301803205E
:1010D3001D127580FF8530A09001179364FFF58082
:1010E3001215A42275800075A00022E51CB4010F1F
:1010F300751C01751101C212C20DC211021145B452
:10110300020302116FB4030302111180E322E511FC
:10111300B4010B751101301223C21204F511B4028C
:101123001030121BC212751103C220751205021171
:101133007EB403DFC2122020DA02119E0201920262
:101143000233E534700274101211C8C2B41215A42C
:10115300E5351211C8C2B51215A4E5321211C8C281
:10116300B61215A4E5331211C8C2B722302008C243
:101173002075120A12117E12119E22C2AF75A0FFB2
:101183007580FFD2B4D2B5D2B6D2B7D294D222C030
:10119300D0120950D0D0C222D2AF22A221920EE5A2
:1011A3005C1211C8C2B41215A4E55D1211C8C2B510
:1011B3001215A4E55E1211C8C2B61215A4E55F129A
:1011C30011C8C2B722C083C08275A0FF7580FFD249
:1011D300B4D2B5D2B6D2B790010493300E02448094
:1011E30064FFF580D082D08322C083C08275A0FFC4
:1011F3007580FFD2B4D2B5D2B6D2B79000E6C3940D
:101203004193201302448064FFF580D082D083226F
:10121300758C9F758A0053877F7589117530FF75AB
:10122300A0FF7580FFD2B4D2B5D2B6D2B7C293C2F3
:1012330091753100751F00751E02751D01751C0126
:10124300751101751B01751A5075120112095A7532
:101253002100752200752300752400D2B9D2A9D2CA
:101263008CD2AF22C0E0C0D0C0F0C001C28CC28D0E
:10127300758C9F758A00C21CE51004F510B45008E4
:10128300751000D223021290B40202C22330160951
:10129300C294D51704C216D294301107E51860031F
:1012A30014F518200C0F200A0C20B209D51A09D204
:1012B3000FD20CD210751A50300F0F309405C29410
:1012C3000212CDC20F201602D294D51D3D20220357
:1012D3001206D7751D0AB21DD51E05C20E751E0254
:1012E300200A27E531B51F0302130DF51FE51CB4D2
:1012F3000102D20E20220E30040B300505E531B475
:101303000103121318D51202D220D28CD001D0F0CF
:10131300D0D0D0E032C083C082121430D082D083C8
:1013230022E531B51603021355F5163000061213E4
:1013330056021339C215300717E545B5500302139A
:10134300534008B5510302134E4005D224021355EE
:10135300C2242220151CE546B43B31E54512039A0D
:10136300B550030213734024B55103021373501C89
:10137300D215E546700AD216751715C21502138FDA
:10138300E531B437004005D2167517052230011632
:10139300200C13E531B5150302142FF51520184B56
:1013A30030030E0213D2C217C218C219C21AC21BCB
:1013B3002220171BE552B5450AE553B54605E53A24
:1013C300B40704E53A500312037EB4060050D7D2A3
:1013D30017E552B54556E553B54651E531704DD243
:1013E30018D219855413855314C21B301925E514DB
:1013F300B5461BE531B43B0302140B201B0AD2167E
:10140300751705D21902142FC21AE5136098C21971
:1014130002142FE5317015201AD4E51314F513E5E2
:101423001424051203C1F514D21AC21B2212145A32
:101433006024300521300611E53FB4020040170453
:10144300B41803021459021454E53FB403004006D0
:1014530014F54712067022E53EB4031C1214CA9019
:1014630014D793B53D08E53FB4020802149E402B00
:101473000214B550260214B54038B4101C1214CA15
:1014830090153B93B53D08E53FB402080214B540FF
:101493002102149E501C02149E501720050BD205E6
:1014A300C206120599E40214C9E430061974010254
:1014B30014C920050BD205D206120599E40214C9FA
:1014C300E420060274012275F00AE53BA4F5F0E579
:1014D3003C25F022262531302827262530292827A8
:1014E3002531302927262531292827263130292857
:1014F300262531302827262530292827253130294C
:101503002726253129282726313029282625313039
:101513002827262530292827253130292726253134
:101523002928272631302928262531302827262522
:101533003029282725313029292827263130292801
:1015430026253130282726253029282725313029FB
:1015530027262531292827263130292826253130E9
:1015630028272625302928272531302927262531E4
:1015730029282726313029282625313028272625D2
:1015830030292827253130292726253129282726C0
:101593003130292826253130282726257F10DFFEE4
:1015A300223024077F03DFFE0215B37F20DFFE22F4
:0C15B3007580FFD2B4D2B5D2B6D2B722F8
:00000001FF
