:03000000020E7C71
:03000B0002173B9E
:10003300454331323034422E61736D202876356268
:10004300292052656C6F6A2D43524F4E4F20464311
:100053002D3230392046656368613A20392F392FB4
:10006300323031362028432E294A5F52504D20200A
:10007300202046435E615F68204A5D52504D205602
:100083006442205E2050554C5341444F204D4F4411
:10009300457243524F4E4F202020204552524F521B
:1000A3002043484950202020204E4F2056414C49A0
:1000B300444F202020204C554E4553202020204DD6
:1000C3004152544553202020204D494552434F4C23
:1000D3004553202020204A554556455320202020B3
:1000E300564945524E455320202020534142414416
:1000F3004F20202020444F4D494E474F20202020A1
:100103004154524153202020204144454C414E54F8
:1001130045202020777C585E79716F76301E7638C3
:1001230015545C7367506D783E1C15766E5B5500F5
:1001330008403F065B4F666D7D077F67777C395EBE
:1001430079710040634801020408102040800504CF
:100153000302010001020304E54CB401079000B55A
:1001630075190922B402079000BE75190A22B40357
:10017300079000C875190D22B404079000D57519AE
:100183000A22B405079000DF75190B22B406079005
:1001930000EA75190A229000F475190B2220114CFC
:1001A30020280990010875190C0201E49000FF75DD
:1001B30019090201E4201134900071751929020113
:1001C300E42011289000A875190D0201E420111CE8
:1001D30090009A75190E0201E4201110853A4C31F2
:1001E3005B85834E85824FD211751808854E8385B2
:1001F3004F82E493F56C740193F56D740293F56E7D
:10020300740393F56F120227E5187017854E8385E3
:100213004F82A385834E85824F751808D51904C272
:1002230011D21222E56C12024DC2B4121A83E56D8B
:1002330012024DC2B5121A83E56E12024DC2B612F6
:100243001A83E56F12024DC2B722C083C08275A024
:10025300FF7580FFD2B4D2B5D2B6D2B7B441004055
:10026300079441B4320040057400020274900117F0
:100273009364FFF580D082D0832220113275190E4A
:100283007869D211751808E53670027410F56CE5BB
:1002930037F56D756E11E538F56FE539F5707571E4
:1002A30011757202757300E53BF574E53CF5751243
:1002B30002E5C2B408121A831202E5C2B508121A83
:1002C300831202E5C2B608121A831202E5C2B718F6
:1002D3001818E518700B75180808D51904C211D23F
:1002E3001222E8B46C004009B476005004E602021E
:1002F300F6741012169C221206311204A812048BF3
:10030300300C051204F280F21203E71203FE121AF4
:100313008380E7E50D04B43C21750D00E55904B471
:100323003C4B755900E55A04B43C3D755A00E5450C
:1003330004B40C2F7545000203AA0203A3E50D6064
:1003430004140203A3750D3BE55960041402037002
:1003530075593BE55A60041402036B755A3BE54536
:10036300601014F5450203AAF55A0203AAF55902CF
:1003730003AAC226750D00755800755900755A00F9
:10038300754500D2167517790203AA30260730285F
:100393000280AA6116D55B0FB227755B780203AAA8
:1003A300F50DC227755B78220002030507080A0CC6
:1003B3000D0F1112141617191B1C1E20212325269D
:1003C300282A2B2D2F3032343537393A3C3E3F41E2
:1003D30043444648494B4D4E5052535557585A5C27
:1003E3005D5F6162D2B4D2B5D2B6D2B712152C1208
:1003F3001525302605E50D12152522E51CB4020549
:10040300C212020631751C01751B0120263E2027EE
:100413000302044FC20ED21374441216C0C2B412A4
:100423001A8374721216C0C2B5121A7EE50D9003B8
:10043300AB931206FFC0E0C4540F12169CC2B6124F
:100443001A83D0E0540F12169CC2B722D20EE55A7B
:100453001206FFC0E0C4540F12169CC2B4121A83D2
:10046300D0E0540F12169CC2B5121A83E559120636
:10047300FFC0E0C4540F12169CC2B6121A83D0E018
:10048300540F12169CC2B722201C1920B314D21C7D
:10049300200811D208300C030205F8B226D20F024D
:1004A30004A7C20822201C3D20B237D21CD2093037
:1004B3000C330204E8C209120645301005C21002CB
:1004C30004E8300C20300B05C20B120A20E51B0494
:1004D3001204E9B406077401751C02C20CF51B0271
:1004E30004E82009D022B40305202802740622C29E
:1004F30026D20EC213E51BB4012B74411216C0C2DF
:10050300B4121A7E74551216C0C2B5121A7E744FF5
:100513001216C0C2B6121A7E744E202902744612F5
:1005230016C0C2B722B4022B74431216C0C2B4124F
:100533001A7E74411216C0C2B5121A7E744F121677
:10054300C0C2B6121A7E744E20280274461216C018
:10055300C2B722B4033274481216C0C2B4121A7E50
:10056300744F1216C0C2B5121A7EE5691206F4C0A2
:10057300F07002741012169CC2B6121A7ED0E012EA
:10058300169CC2B7121A7E22B40432744D1216C0DE
:10059300C2B4121A7E74491216C0C2B5121A7EE58D
:1005A3006A1206F4C0F07002741012169CC2B612DE
:1005B3001A7ED0E012169CC2B7121A7E22B40532FC
:1005C30074531216C0C2B4121A7E74451216C0C2F6
:1005D300B5121A7EE56B1206F4C0F07002741012A5
:1005E300169CC2B6121A7ED0E012169CC2B7121A1B
:1005F3007E22C20C22D20BE51BB40105B2290206EE
:1006030030B40205B228020630B4030AE5691207C2
:1006130047F569020630B4040AE56A120783F56AEE
:10062300020630B40507E56B120783F56B22C22679
:1006330031A0121A833012F6C20CC210751B017559
:100643001C01750D0075580020280C755900755A4A
:1006530000754500020663856B59856A5A856945AD
:10066300200C0BA2299226C227751C01D20F2275DA
:1006730009FF750AFF79FF9000337A00E493780845
:10068300F6120799EA04FAD9F4E509644E650A6497
:10069300AFD2147002C21422D20D751B0175F00A79
:1006A300E534A4F5F0E53525F0F54775F00AE532B4
:1006B300A4F5F0E53325F0F54885314975F00AE5F1
:1006C30036A4F5F0E53725F0F54A75F00AE538A4C8
:1006D300F5F0E53925F0F54B853A4C75F00AE53B25
:1006E300A4F5F0E53C25F0F54D221206FF120711A3
:1006F3002275F06484E5F075F00A8422C0F075F089
:100703006484E5F075F00A84C445F0D0F022C0E0BB
:10071300C4540F2430F5F0D0E0540F243022C0E04D
:10072300C4540F75F00AA4F5F0D0E0540F25F0225D
:1007330074002274012204B4080050F72204B40A9E
:100743000050ED2204B40C0050E62204B40D005016
:10075300E22204B4180050D82204B4190050D42261
:1007630004B41904E550042250FAB5500280F54050
:10077300F32204B4200050BB2204B4330050B1224E
:1007830004B43C0050AA22B43C004002943C22042E
:10079300B46400509B22E50AC509C50AE6650AC58B
:1007A3000AE50A54F0C4650AC50AE50A54F8C313F6
:1007B3001313C50BE50A5407C313131313C50CE531
:1007C3000A540FC4650B6509C509E50A650CC50A1A
:1007D30022E509C4540F12169CC2B4121A7EE5090D
:1007E300540F12169CC2B5121A7EE50AC4540F1296
:1007F300169CC2B6121A7EE50A540F12169CC2B793
:1008030022748EC293D291120BBC7400120BBCC221
:1008130093C2911208A52274FCC293D291120BBC0D
:1008230074AA120BBCC293C29175200075500A754D
:10083300511675520875530075540375551975563D
:1008430011755705752500756900756A2D756B005F
:1008530012099E1209B01209BE1209CC1209DA124A
:1008630009E81209F6120A04120A12120A45120AB8
:1008730053120A61120A6F754900754800754700E3
:10088300754A01754B01754D10754C05120AB61268
:100893000AC4120AD2120AE6120AF4120B10120B3D
:1008A3000222120B2A74FDC293D291120BBCE412E2
:1008B3000BCFC293C291D214B4AA02C2142274C140
:1008C300120929F52074C3120929541FF55074C560
:1008D300120929541FF55174C7120929541FF552DF
:1008E30074C9120929543FF55374CB120929540FC3
:1008F300F55474CD120929F55574CF120929F5560B
:1009030074D1120929540FF55774D3120929F52507
:1009130074D5120929F56974D7120929F56A74D9AE
:10092300120929F56B22C293D291120BBC120BCF81
:10093300C293C29122D222E51BB4010302099EB4E1
:10094300020302099EB403061209B00209BEB404ED
:10095300030209BEB4050302099EB406030209CCCF
:10096300B407030209DAB4080302099EB4090302B7
:1009730009E8B40A0302099EB40B030209F6B40C96
:1009830003020A04B40D03020A12B40E0302099E01
:10099300B40F05D222020A45C22222C224D22274F3
:1009A300C0C293D291120BBCE520020B1E74C2C2CB
:1009B30093D291120BBCE550020B1E74C4C293D2A6
:1009C30091120BBCE551020B1E74C6C293D2911255
:1009D3000BBCE552020B1E74C8C293D291120BBC1E
:1009E300E553020B1E74CAC293D291120BBCE55499
:1009F300020B1E74CCC293D291120BBCE555020BB1
:100A03001E74CEC293D291120BBCE556020B1E7418
:100A1300D0C293D291120BBCE557020B1ED222E532
:100A23001BB40103020A45B40203020A45B40303DB
:100A3300020A53B40403020A61B40503020A6FC233
:100A4300222274D2C293D291120BBCE525020B1E53
:100A530074D4C293D291120BBCE569020B1E74D6F7
:100A6300C293D291120BBCE56A020B1E74D8C293D7
:100A7300D291120BBCE56B020B1ED222E51BB40113
:100A830003020AB6B40203020AC4B40303020AD27D
:100A9300B40407C205319E020AE6B40507C2053154
:100AA3009E020AF4B40603020B02B40703020B10FE
:100AB300C222227480C293D291120BBCE549020B6D
:100AC3001B7482C293D291120BBCE548020B1BD25A
:100AD30022C205319E7484C293D291120BBCE547A6
:100AE300020B1B7486C293D291120BBCE54A020B14
:100AF3001B7488C293D291120BBCE54B020B1B747F
:100B03008AC293D291120BBCE54C020B1B748CC2AC
:100B130093D291120BBCE54D1206FF120BBCC2938C
:100B2300C291D20FC222227481312930E709547F46
:100B3300120721F53151B62274813129547F1207EE
:100B430021F53174833129C0E0120721F546D0E045
:100B5300C0E0C4540FF532D0E0540FF5337485313F
:100B630029F53FC0E0120721F545D0E0C0E0C454A9
:100B73000FF534D0E0540FF53574873129F53DC0B6
:100B8300E0C4540FF536D0E0540FF537748931299A
:100B9300F53EC0E0C4540FF538D0E0540FF5397476
:100BA3008B31295407F53A748D3129C0E0C4540FB1
:100BB300F53BD0E0540FF53C227908C2931340056E
:100BC300C292020BCAD292D293D9F022790874004E
:100BD300C29300C3309201D313D293D9F322C0E05E
:100BE300C2907401120E06D2907401120E06A290E6
:100BF300D0E022C0E0921FC2907401120E06A21F21
:100C030092907428120E06D290D0E022C0E0C290D7
:100C130074FA120E06D290D0E022C0E0910F74084D
:100C2300120E0675600030900B0560E560B425F682
:100C3300D3D0E0227478120E06C3D0E022C0F07540
:100C4300F008E471E113C0E0741C120E06D0E0D585
:100C5300F0F1D0F022C0E0C0F075F0081371F6D5C2
:100C6300F0FAD0F0D0E022911D74FF4001E422C0DD
:100C730000916A701474CC9158744E915874009119
:100C83005874009158747F9158D00022C000916A23
:100C9300704774CC9158744491589140B4FFFB91C0
:100CA3006A703674CC915874BE9158786574641226
:100CB3000E069140F6087464120E069140F608740D
:100CC30064120E0691407464120E0691407464120D
:100CD3000E069140F6D000E422D00074FF22C0E05B
:100CE300C0F0E565540FF567E56630E703120DD2F2
:100CF300E56554F0C4F565E5665407C44565F565D7
:100D0300E557B40503020D58502BB40405740102D2
:100D13000D32B403057402020D32B40205740302EA
:100D23000D32B401057404020D32B40028740512A7
:100D33000DF0020D58B406057401020D55B40705F4
:100D43007402020D55B408057403020D55B4090568
:100D53007404120DDBE56654F8600CE565647FF5F9
:100D630065756111020D6D756110E5651206FFF57C
:100D7300F054F0C4F562E5F0540FF563E567540FE2
:100D8300120D8DF564D0F0D0E022C083C082900DA7
:100D93009A93D082D0832200010102020303040547
:100DA30006060707080809918F700691E1120E0ADB
:100DB30022756111756211756311756411755C118A
:100DC300755D11755E11755F11756800D20F22E5AF
:100DD30067640F540FF56722C33565F56530E70C7B
:100DE300547FF565E5665407F566B1D222C3C56540
:100DF3009565547FF565500AE566540744F8F56632
:100E0300B1D222D5E0FD2275F00AE562A42563F58F
:100E130068E561B41103756800E562B400037562A7
:100E230010E561B4111CE562B4100685615C020E25
:100E330048755C11755D11755E01755F00C2210215
:100E43000E5385625C85635D85645E755F12D22196
:100E5300200203020E7BE561B41103020E76E568FE
:100E6300B55600400EE568B55504E564600A5003C5
:100E7300020E7BD216751715227581761216E711AD
:100E830004301411111A11A530140AD20F1201D013
:100E9300121A7E80F611C112067230140AD20F1292
:100EA30001C4121A7E80F61201B8121A833012F7A7
:100EB300C21220B205D2250202FAC225917212167D
:100EC3005430040630050312190F120F00120F4E8F
:100ED30012186F121803300A0DC215751C01751113
:100EE300011210CB80E41214FA121578121A8380BF
:100EF300D9200C03517D22313822D21B22201C47DA
:100F030020B241D21C2019F2D209300C3AD20A0283
:100F13000F4AC209D20A301005C210020F4A300B21
:100F230004C20BD1F4E51B04300C09120F74B41086
:100F33000E020F3AB408087401C20DC20AC20CF5BE
:100F43001B020F4A2009CB22D21B22201C2220B3D2
:100F53001DD21C2019F2200817D208300A03020FF1
:100F630099E51C04B4040040027401F51C22C20874
:100F730022B4030B20001E20071B7405020F98B434
:100F83000608200110740A020F98B40B082002050A
:100F9300740E020F9822D20BE51B200C030210459E
:100FA300B40105B20002109DB40205B20702109D00
:100FB300B4030FE550120755F550E55112076402CB
:100FC3000FCDB4040AE551120763F55102109DB425
:100FD3000505B20102109DB4060AE552120755F544
:100FE3005202109DB4070AE553120783F55302100A
:100FF3009DB40805B20302109DB4090AE554120713
:1010030040F55402109DB40A05B20202109DB40BC0
:101013000AE55512077CF55502109DB40C0AE556F6
:1010230012077CF55602109DB40D0AE557120740CE
:10103300F55702109DB40E02B204B40F02B22A0295
:10104300109DB4010AE549120783F54902109DB4C6
:10105300020AE548120783F54802109DB4030AE526
:1010630047120755F54702109DB4040AE54A1207D3
:1010730075F54A02109DB4050AE54B12074EF54B70
:1010830002109DB4060AE54C120739F54C02109D77
:10109300B40707E54D120792F54D2212015B740464
:1010A300931216C0C2B4121A7E7405931216C0C2EC
:1010B300B5121A7E7406931216C0C2B6121A7E7443
:1010C30007931216C0C2B722200D0312069BD20E3D
:1010D300C213E51B300C0302121AB4012F7453120E
:1010E30016C0C2B4121A7E74451216C0C2B5121AC3
:1010F3007EE5491206F4C0F07002741012169CC209
:10110300B6121A7ED0E012169CC2B722B4022F7414
:101113004D1216C0C2B4121A7E74491216C0C2B55B
:10112300121A7EE5481206F4C0F07002741012160B
:101133009CC2B6121A7ED0E012169CC2B722B40328
:101143003274481216C0C2B4121A7E744F1216C0FB
:10115300C2B5121A7EE5471206F4C0F0700274108D
:1011630012169CC2B6121A7ED0E012169CC2B71297
:101173001A7E22B4042F74441216C0C2B4121A7E0B
:1011830074491216C0C2B5121A7EE54A1206F4C09B
:10119300F07002741012169CC2B6121A7ED0E012BE
:1011A300169CC2B722B40532744D1216C0C2B412D3
:1011B3001A7E74451216C0C2B5121A7EE54B12068A
:1011C300F4C0F07002741012169CC2B6121A7ED0CC
:1011D300E012169CC2B7220214F3B40605D213110F
:1011E3009E22B407F274411216C0C2B4121A7E745E
:1011F3005B1216C0C2B5121A7EE54D1206F4C0F09A
:101203007002741012169CC2B6121A7ED0E0121627
:101213009CC2B7121A7E22B4012B74481216C0C2A4
:10122300B4121A7E744F1216C0C2B5121A7E744FCE
:101233001216C0C2B6121A7E744E200002744612F1
:1012430016C0C2B722B4022B74521216C0C2B41213
:101253001A7E74421216C0C2B5121A7E744F121649
:10126300C0C2B6121A7E744E20070274461216C00C
:10127300C2B722B4033274481216C0C2B4121A7E23
:1012830074491216C0C2B5121A7EE5501206F4C094
:10129300F07002741012169CC2B6121A7ED0E012BD
:1012A300169CC2B7121A7E22B4042F74481216C0B9
:1012B300C2B4121A7E74461216C0C2B5121A7EE563
:1012C300511206F4C0F07002741012169CC2B612CA
:1012D3001A7ED0E012169CC2B722B4052B744112B9
:1012E30016C0C2B4121A7E744C1216C0C2B5121ABA
:1012F3007E744F1216C0C2B6121A7E744E200102BB
:1013030074461216C0C2B722B4062F74481216C010
:10131300C2B4121A7E74411216C0C2B5121A7EE507
:10132300521206F4C0F07002741012169CC2B61268
:101333001A7ED0E012169CC2B722B4072F744D1246
:1013430016C0C2B4121A7E74411216C0C2B5121A64
:101353007EE5531206F4C0F07002741012169CC29C
:10136300B6121A7ED0E012169CC2B722B4082B74B0
:10137300461216C0C2B4121A7E74531216C0C2B5F6
:10138300121A7E744F1216C0C2B6121A7E744E2001
:10139300030274461216C0C2B722B409267452124D
:1013A30016C0C2B4121A7E74451216C0C2B5121A00
:1013B3007E741012169CC2B6121A7EE55412169C45
:1013C300C2B722B40A2B74411216C0C2B4121A7ED9
:1013D30074541216C0C2B5121A7E744F1216C0C2CC
:1013E300B6121A7E744E20020274461216C0C2B799
:1013F30022B40B2F74541216C0C2B4121A7E74484E
:101403001216C0C2B5121A7EE5551206F4C0F0706A
:1014130002741012169CC2B6121A7ED0E012169CE9
:10142300C2B722B40C2F74541216C0C2B4121A7E5F
:10143300744C1216C0C2B5121A7EE5561206F4C0D9
:10144300F07002741012169CC2B6121A7ED0E0120B
:10145300169CC2B722B40D3C741212169CC2B4126D
:101463001A7E740C12169CC2B5121A7EE557B40587
:10147300030214794008741012169C021486741126
:1014830012169CC2B6121A7EE5579001519312169A
:101493009CC2B722B40E2B74431216C0C2B4121AE4
:1014A3007E74481216C0C2B5121A7E744F1216C04B
:1014B300C2B6121A7E744E20040274461216C0C2BB
:1014C300B722B40F2B74441216C0C2B4121A7E741E
:1014D300481216C0C2B5121A7E744F1216C0C2B695
:1014E300121A7E744E202A0274461216C0C2B72204
:1014F300C20DC20AC20C22D2B4D2B5D2B6D2B73010
:1015030017083023057400121525E51CB40105E501
:1015130031021525D50C09750C0612152C1215254B
:10152300E54612153F121A7E22E545B40C057400F8
:1015330002153A4002940C75F005A4227530FEB4EE
:101543000800400F75F00884F9E530D333D9FDF571
:1015530030E5F0201618301803201D127580FF8522
:1015630030A09001499364FFF580121A832275809D
:101573000075A00022E51CB4010F751C0175110153
:10158300C212C20DC2110215CFB40203021643B434
:10159300030302159B80E322E511B4010B751101CE
:1015A300301223C21204F511B4021030121BC212FE
:1015B300751103C220751205021652B403DFC2125D
:1015C3002020DA0216720201DC02027D300244E5B9
:1015D30031B40503021643B40A03021643B40F03DE
:1015E300021643B41403021643B41903021643B498
:1015F3001E03021643B42303021643B42803021640
:1016030043B42D03021643B43203021643B4370323
:10161300021643E534202A047002741012169CC289
:10162300B4121A83E53512169CC2B5121A83E53239
:1016330012169CC2B6121A83E53312169CC2B72245
:10164300302008C22075120A12165212167222C2D4
:10165300AF75A0FF7580FFD2B4D2B5D2B6D2B7D2E0
:1016630094D222C0D0120DAAD0D0C222D2AF22A2CD
:1016730021920EE55C12169CC2B4121A83E55D1228
:10168300169CC2B5121A83E55E12169CC2B6121AD4
:1016930083E55F12169CC2B722C083C08275A0FF88
:1016A3007580FFD2B4D2B5D2B6D2B790013593309C
:1016B3000E02448064FFF580D082D08322C083C0B1
:1016C3008275A0FF7580FFD2B4D2B5D2B6D2B790DF
:1016D3000117C3944193201302448064FFF580D023
:1016E30082D08322758C9F758A0053877F758911F9
:1016F3007530FF75A0FF7580FFD2B4D2B5D2B6D2D4
:10170300B7C293C291753100751F00751E02751D16
:1017130001751C01751101751B01751A50751201B4
:10172300120DB4752100752200752300752400D2B3
:10173300B9D2A9D28CD2AF22C0E0C0D0C083C082BC
:10174300C0F0C001C28CC28D758C9F302506758C8C
:10175300BF12038E758A2EC21CE51004F510B45017
:1017630008751000D223021771B40202C223301687
:1017730009C294D51704C216D294301107E5186034
:101783000314F518200C0F200A0C20B209D51A09EE
:10179300D20FD20CD210751A50300F0F309405C2ED
:1017A300940217AEC20F201602D294D51D432022F5
:1017B30006202503120B3B751D0AB21DD51E05C25B
:1017C3000E751E02200A2AE531B51F030217F4F530
:1017D3001FE51CB40102D20E20251120220E300475
:1017E3000B300505E531B4010312190FD51202D2EE
:1017F30020D28CD001D0F0D082D083D0D0D0E032B0
:10180300E531B51603021834F51630000612183503
:10181300021818C215300717E545B55003021832F0
:101823004008B5510302182D4005D224021834C2D2
:10183300242220151CE546B43B31E54512075CB56F
:1018430050030218524024B55103021852501CD2BF
:1018530015E546700AD216751715C21502186EE5FE
:1018630031B437004005D216751705223001162012
:101873000C13E531B5150302190EF51520184B307D
:10188300030E0218B1C217C218C219C21AC21B2210
:1018930020171BE552B5450AE553B54605E53AB4AD
:1018A3000704E53A5003120739B4060050D7D2179C
:1018B300E552B54556E553B54651E531704DD2185D
:1018C300D219855413855314C21B301925E514B559
:1018D300461BE531B43B030218EA201B0AD21675F6
:1018E3001705D21902190EC21AE5136098C219021C
:1018F300190EE5317015201AD4E51314F513E51408
:10190300240512078AF514D21AC21B221219396050
:1019130024300521300611E53FB40200401704B41A
:101923001803021938021933E53FB40300400614C3
:10193300F547120AD222E53EB4031C1219A99019E5
:10194300B693B53D08E53FB4020802197D402B026A
:10195300199450260219944038B4101C1219A990F6
:101963001A1A93B53D08E53FB402080219944021C1
:1019730002197D501C02197D501720050BD205C298
:101983000612099EE40219A8E4300619740102192B
:10199300A820050BD205D20612099EE40219A8E479
:1019A30020060274012275F00AE53BA4F5F0E53C3C
:1019B30025F02226253130282726253029282725DA
:1019C3003130292726253129282726313029282671
:1019D3002531302827262530292827253130292766
:1019E3002625312928272631302928262531302854
:1019F300272625302928272531302927262531294F
:101A03002827263130292826253130282726253036
:101A13002928272531302929282726313029282626
:101A23002531302827262530292827253130292715
:101A33002625312928272631302928262531302803
:101A430027262530292827253130292726253129FE
:101A530028272631302928262531302827262530E6
:101A630029282725313029272625312928272631DA
:101A730030292826253130282726257F10DFFE220E
:101A83003024077F03DFFE021A927F20DFFE2275D8
:0B1A930080FFD2B4D2B5D2B6D2B72289
:00000001FF
