:020000040000FA
:0A0000008316FF23900083126E2880
:04000A00003400348A
:10002000A30B00342530A3002A1C1B28A00F00348A
:100030002A10A0030034A00803192028A0030034CC
:100040002A140034A40B00341E30A400AA1C2D284E
:10005000A10F0034AA10A1030034A108031932280B
:10006000A1030034AA140034A50B00342D30A500E0
:100070002A1D3F28A20F00342A11A2030034A2082F
:1000800003194428A20300342A150034A90A2008C1
:100090002902031C85140318851021082902031C5A
:1000A00005140318051022082902031C051503185E
:1000B00005110034A701A80183163830850083128A
:1000C00064004620851E6828A70F6028A80A6028BB
:1000D0008316183085008312851600348316183075
:1000E0008500E33081008312073099008B130B13D6
:1000F0002530A3001E30A4002D30A500AA01A601C2
:10010000A201A001A101851664005A202708A600BB
:100110004620A60B882810202708A6006400462049
:10012000A60B8F2822202708A60064004620A60BD5
:08013000962834208428090000
:00000001FF
