:100000008316FF2390008301F12A5F2B612B632B62
:0E001000652BB82BE52BD12B1B2B182B152B9A
:1005C8008312A0000430A1005330A200A20BEA2A33
:1005D800A10BE82AA00BE62A0800AF01B001B1017F
:1005E800B201B301B401B501B601B701B801B9014F
:1005F8008301982B1B3083168500073083129900DE
:100608000B3083169F00813083129F00D1308316F0
:1006180081006430E4220B138B1308002008B90012
:100628001E2B85120511080085160515080085166C
:10063800051108002108003A0319232B2E2B200846
:100648008400033004020318080000308A000C30CC
:10065800040782000800A401A50121082004031949
:10066800542BA601A60AA11B3D2B0310A00DA10D1A
:10067800362B0310A40DA50D21082302031D462BBC
:1006880020082202031C502B2008A2022108031C68
:10069800A303A30224140310A10CA00CA60B3D2B4A
:1006A8002508A1002408A0000800A900F330AA0129
:1006B800AB019F056B2B1F08762B1F15762B9F15FB
:1006C800762B0C309F04762BA701A8010800290877
:1006D8008400043004020318682B00308A000530B7
:1006E800040782000A30E422AC019F149F187A2B79
:1006F80083161E088312AA070318AB0A1E08AB0745
:100708000530E4220A30AC0A2C02031C792B0A308B
:10071800A000A1012B08A3002A08A2002F2321086A
:10072800A8002008A7000800FE22B901851DA12BFA
:100738002830B100B201AF00A42BB101B201AF0162
:100748000330B00159232808B8002708B700003043
:1007580059232808B6002708B5000130592328086E
:10076800B4002708B300F32B34083602031DBE2B50
:10077800330835020318C42B0230A000A10112234C
:1007880038083402031DCA2B3708330203189A2B82
:10079800A001A00AA10112239A2B31083307AD004A
:1007A80032080318320A3407AE0036082E02031D39
:1007B800DF2B35082D0203189A2BA001A101122363
:1007C8009A2B2F083707AD0030080318300A38076E
:1007D800AE0034082E02031DDF2B3308DE2B390848
:1007E80084000330040203189A2B00308A00093071
:0607F80004078200002846
:02400E0044313B
:00000001FF
